:020000040000FA
:020000000528D1
:040002000034003492
:08000800080083160317013004
:1000100088008316031371308F008316031300309A
:100020008800831203138801831603130E309F0088
:100030008316031301308500831203138501831295
:100040000313C1309F00A0019F1401306A209F1844
:1000500027281E08A0001C30200203183228003078
:1000600088002428383020020318392801308800FD
:100070002428543020020318402803308800242804
:1000800070302002031847280730880024288C305D
:10009000200203184E280F3088002428A8302002A0
:1000A000031855281F3088002428C4302002031864
:1000B0005C283F3088002428E030200203186328A1
:1000C0007F3088002428FA30200203182428FF30CB
:1000D000880024288E00F9308D0000008D0B6D28DB
:0600E0008E0B6B280800E6
:02400E00E42F9D
:02401000FF3F70
:00000001FF
