:020000040000FA
:020000002528B1
:08000800342882072034203463
:100010002034203449346E3467342E34203445344F
:100020006C3465346334743472346F346E346934D0
:10003000633461340034BA344334203454344534A6
:1000400053344334483441340034AE2036218316CF
:100050000730810083120630C0213D3081002830F6
:100060008C00A0308B0033280B1938200B110900AD
:100070003D3081008C0B412828308C00BD20B620FB
:100080004220080005307021921F48282D307D2124
:1000900010082321AA212E307D211108B5211B3003
:1000A000C02108008316051283120512080083166A
:1000B0000516831208008316851183128511080026
:1000C000831685158312851D63280800572060203C
:1000D000E2205220E2205B20E22008005220602033
:1000E000E2205720E22008008E0008308D008E0D9F
:1000F00003187C2852207D2857206020E2205B20B6
:10010000E2208D0B772857206020E2205B20E22040
:10011000080008308D00572060200310051A0314D2
:100120008E0D5B20E2208D0B8C280F1C522060204E
:10013000E2205B20E2200E08080082070034013430
:1001400001340234033403340434043405340634F3
:1001500006340734083408340934093466209030F2
:100160007420AC3074204B3074206E2066209030A8
:100170007420EE3074206E2008000F10662090303E
:100180007420AA3074206620913074208920900059
:100190000F14892091006E209201901FD628920999
:1001A00091099009013091070318900A110E0F3937
:1001B0009D209100100808000000000000000000D1
:1001C0000000000008000000A430EF2800004030CC
:1001D000EF281F30EF2800000E30EF280530930085
:1001E000930BF0280800C83002296430022932300D
:1001F0000229143002290A3002290530022902306E
:10020000022901309400F93093000000930B052976
:10021000940B03290800C83016296430162932309F
:100220001629143016290A30162905309500643035
:100230009400F93093000000930B1B29940B1929AB
:10024000950B172908009601970198000A301802AB
:10025000031C33299800970A0A301702031C262929
:100260009701960A2629170E18070800831605100D
:10027000051185108312851005110510F920303005
:100280005021FD2030305021E62030305021EE202A
:1002900020305021EE207A21782176216421080037
:1002A000F039990006080F399904831606089B0057
:1002B0000F3086058312190886000515051183166F
:1002C0001B0886008312080006307B2980307B29BA
:1002D000C0307B2994307B29D4307B2980387B291E
:1002E000C0387B2908307B290E307B290C307B29D4
:1002F00001307B29283005107F29051487219A00B9
:1003000050211A0E5021051CFF20EB2008009900F7
:10031000F13C031D8E29EE3099009B291908D13C30
:10032000031D9529EE3099009B291908BA3C031D3D
:100330009B29DF309900190808001030A4290130EA
:10034000A4290230A42903309C0020307D219C0B7D
:10035000A52908009D00F039031DB22920307D2118
:10036000B4299D001D0EB5211D080F399C00093CC4
:10037000031CBD291C08303EBF291C08373E7D29BF
:100380009E0005309E029E031E0805209F009F08C8
:100390000319CD297D219E0AC42908009E0005303D
:1003A0009E029E03A001782110302002031DDD294A
:1003B000F320F3200F309E02D2291E0805209F0053
:1003C0009F080319E7297D21A00A9E0AD429080065
:02400E00F13F80
:00000001FF
